{
  "contractName": "ZombieFactory",
  "abi": [
    {
      "anonymous": false,
      "inputs": [
        {
          "indexed": false,
          "internalType": "uint256",
          "name": "zombieId",
          "type": "uint256"
        },
        {
          "indexed": false,
          "internalType": "string",
          "name": "name",
          "type": "string"
        },
        {
          "indexed": false,
          "internalType": "uint256",
          "name": "dna",
          "type": "uint256"
        }
      ],
      "name": "NewZombie",
      "type": "event"
    },
    {
      "constant": true,
      "inputs": [
        {
          "internalType": "uint256",
          "name": "",
          "type": "uint256"
        }
      ],
      "name": "zombies",
      "outputs": [
        {
          "internalType": "string",
          "name": "name",
          "type": "string"
        },
        {
          "internalType": "uint256",
          "name": "dna",
          "type": "uint256"
        }
      ],
      "payable": false,
      "stateMutability": "view",
      "type": "function"
    },
    {
      "constant": false,
      "inputs": [
        {
          "internalType": "string",
          "name": "_name",
          "type": "string"
        }
      ],
      "name": "createRandomZombie",
      "outputs": [],
      "payable": false,
      "stateMutability": "nonpayable",
      "type": "function"
    }
  ],
  "bytecode": "0x60806040526010600055662386f26fc1000060015534801561002057600080fd5b506104d0806100306000396000f3fe608060405234801561001057600080fd5b50600436106100365760003560e01c80632052465e1461003b5780637bff0a01146100d7575b600080fd5b6100586004803603602081101561005157600080fd5b503561017f565b6040518080602001838152602001828103825284818151815260200191508051906020019080838360005b8381101561009b578181015183820152602001610083565b50505050905090810190601f1680156100c85780820380516001836020036101000a031916815260200191505b50935050505060405180910390f35b61017d600480360360208110156100ed57600080fd5b81019060208101813564010000000081111561010857600080fd5b82018360208201111561011a57600080fd5b8035906020019184600183028401116401000000008311171561013c57600080fd5b91908080601f016020809104026020016040519081016040528093929190818152602001838380828437600092019190915250929550610232945050505050565b005b6002818154811061018c57fe5b60009182526020918290206002918202018054604080516001831615610100026000190190921693909304601f8101859004850282018501909352828152909350918391908301828280156102225780601f106101f757610100808354040283529160200191610222565b820191906000526020600020905b81548152906001019060200180831161020557829003601f168201915b5050505050908060010154905082565b600061023d8261024d565b905061024982826102d6565b5050565b600080826040516020018082805190602001908083835b602083106102835780518252601f199092019160209182019101610264565b6001836020036101000a0380198251168184511680821785525050505050509050019150506040516020818303038152906040528051906020012060001c905060015481816102ce57fe5b069392505050565b6040805180820190915282815260208082018390526002805460018101808355600083905284518051919594929093027f405787fa12a823e0f2b7631cc41b3ba8828b3321ca811111fa75cd3aa3bb5ace0192610337928492910190610400565b5060208201518160010155505050600060016002805490500390507f88f026aacbbecc90c18411df4b1185fd8d9be2470f1962f192bf84a27d0704b78184846040518084815260200180602001838152602001828103825284818151815260200191508051906020019080838360005b838110156103bf5781810151838201526020016103a7565b50505050905090810190601f1680156103ec5780820380516001836020036101000a031916815260200191505b5094505050505060405180910390a1505050565b828054600181600116156101000203166002900490600052602060002090601f016020900481019282601f1061044157805160ff191683800117855561046e565b8280016001018555821561046e579182015b8281111561046e578251825591602001919060010190610453565b5061047a92915061047e565b5090565b61049891905b8082111561047a5760008155600101610484565b9056fea265627a7a72315820bf675fdff1265ec48f98d67d3275976a17283b695f75a91a7883acd2c5eb85dc64736f6c63430005100032",
  "source": "//SPDX-License-Identifier:MIT\r\npragma solidity ^0.5.16;\r\ncontract  ZombieFactory{\r\n    event NewZombie(uint zombieId,string name,uint dna);\r\n    uint dnaDigits=16;\r\n    uint dnaModulus=10**dnaDigits;\r\n    struct Zombie{\r\n        string name;\r\n        uint dna;\r\n    }\r\n    Zombie[] public zombies;\r\n    function _createZombie(string memory _name,uint _dna)private{\r\n        zombies.push(Zombie(_name,_dna));\r\n         uint id=zombies.length - 1;\r\n         emit NewZombie(id,_name,_dna);\r\n\r\n    }\r\n    function _generateRandomDna(string memory _str)private view returns(uint){\r\n        uint rand=uint(keccak256(abi.encodePacked(_str)));\r\n        return rand % dnaModulus;\r\n    }\r\n    function createRandomZombie(string memory _name)public {\r\n        uint randDna=_generateRandomDna(_name);\r\n        _createZombie(_name,randDna);\r\n            }\r\n}",
  "sourcePath": "C:\\Users\\nikhi\\OneDrive\\Desktop\\CryptoZombies\\contracts\\ZombieFactory.sol",
  "compiler": {
    "name": "solc",
    "version": "0.5.16+commit.9c3226ce.Emscripten.clang"
  },
  "schemaVersion": "3.4.16",
  "updatedAt": "2025-05-06T14:09:43.279Z",
  "networkType": "ethereum",
  "devdoc": {
    "methods": {}
  },
  "userdoc": {
    "methods": {}
  }
}